:020000040800F2
:1000000098120020F1010008771B00085119000820
:10001000751B000863080008DD20000800000000D0
:10002000000000000000000000000000FB1B0008B2
:100030001509000800000000F91B0008FD1B00085E
:100040000B0200080B0200080B0200080B0200085C
:100050000B0200080B0200081709000843090008FA
:10006000490900084F090008550900080B0200085B
:100070000B0200080B0200080B0200080B0200082C
:100080000B0200080B0200080B0200080B0200081C
:100090000B0200080B0200080B0200085B090008B5
:1000A0000B0200080B0200080B0200080B020008FC
:1000B0000B0200080B0200080B0200080B020008EC
:1000C0000B0200080B0200080B0200080B020008DC
:1000D0000B0200080B0200080B0200080B020008CC
:1000E0001D0900080B0200080B0200080B020008A3
:1000F0000B0200080B0200080B0200080B020008AC
:100100000B0200080B0200080B0200080B0200089B
:100110000B0200080B0200080B0200080B0200088B
:100120000B0200080B0200080B0200080B0200087B
:100130000B0200080B0200080B0200080B0200086B
:100140000B0200080B0200080B0200080B0200085B
:100150000B0200080B0200080B0200080B0200084B
:100160000B0200080B0200080B0200080B0200083B
:100170000B0200080B020008000000000000000055
:100180000B0200080B0200080B0200080B0200081B
:100190000B0200080B020008000000000B02000820
:1001A0000B0200080B020008000000000000000025
:1001B0000B02000800000000000000000B02000815
:1001C0000B0200080B0200080B0200080B020008DB
:1001D0000B0200080B020008DFF810D000F0CCFA88
:1001E00000480047652F0008AFF3008098120020F8
:1001F0000648804706480047FEE7FEE7FEE7FEE7C1
:10020000FEE7FEE7FEE7FEE7FEE7FEE7B11C0008BB
:10021000D90100082DE9F05F0546002092469B4673
:1002200088460646814640241BE02846414647460C
:10023000224600F05EF953465A46C01A914110D347
:1002400011461846224600F045F92D1A67EB0108C1
:100250004F4622460120002100F03CF917EB00092F
:100260004E41201EA4F10104DFDC484631462A46F7
:100270004346BDE8F09F40EA01039B0703D009E035
:1002800008C9121F08C0042AFAD203E011F8013B82
:1002900000F8013B521EF9D27047D2B201E000F8DB
:1002A000012B491EFBD270470022F6E710B513461A
:1002B0000A4604461946FFF7F0FF204610BD2DE917
:1002C000FE4F81EA030404F0004421F00041009451
:1002D0004FF0000B23F0004350EA01045ED052EAD5
:1002E00003045BD0C3F30A54C1F30A552C44A4F2AF
:1002F000F3340194A0FB0254C1F3130141F48011C3
:10030000C3F3130343F4801301FB024400FB034EC9
:10031000840A970A44EA815447EA8357A4FB076892
:1003200002958D0A05FB07854FEA932C04FB0C54BC
:100330002705029D4FEA065847EA1637B5EB080530
:100340006EEB070C870E920E47EA811742EA831282
:10035000A7FB0201B6EB0B0164EB00042B0D43EA93
:100360000C335E1844EB1C50DA465146E7FB0201A1
:10037000C5F313044FEA0B3343EA14534FEA043234
:10038000019C43EA0603A4F10C040294009CCDE90D
:1003900000B400F0CDF803B0BDE8F08F00200146B6
:1003A000F9E72DE9F04D81EA030404F0004B21F058
:1003B000004514464FF0000A23F0004150EA0502C0
:1003C00020D054EA01021DD0C5F30A570246C5F3F6
:1003D0001303C1F31300C1F30A5640F4801543F42C
:1003E0008013A7EB0608101BD64608F2FD3873EB06
:1003F000050002D308F1010801E092185B41B8F151
:10040000000F03DA00200146BDE8F08D00204FF414
:100410008011064684460EE0171B73EB050705D3D3
:10042000121B63EB050306434CEA010C49084FEA33
:10043000300092185B4150EA0107EDD152EA030007
:1004400012D082EA040083EA0501084305D0101B9C
:10045000AB4106D20122002306E000224FF0004308
:1004600002E06FF0010253101AEB06004CEB08514A
:1004700010EB0A0041EB0B01BDE8F04D00F049B86C
:100480000EB5C10F80EAE0700844CA07002140F2AF
:1004900033438DE80E000A460B4600F049F803B0DE
:1004A00000BDC1F30A5210B5C1F3130140F2FF338E
:1004B00041F480119A4201DA002010BD40F233432A
:1004C0009A42A2F2334203DC524200F012F810BD0D
:1004D000904010BD202A04DB203A00FA02F10020EF
:1004E00070479140C2F1200320FA03F31943904072
:1004F0007047202A04DB203A21FA02F000217047DD
:1005000021FA02F3D040C2F120029140084319467B
:10051000704710B5141E73F1000408DA401C41F155
:10052000000192185B411A4301D120F0010010BD77
:100530002DE9F04D92469B4611B1B1FA81F202E0ED
:10054000B0FA80F220329046FFF7C4FF04460F460F
:1005500040EA0A0041EA0B0153465A46084313D0C9
:10056000114653EA010019D0C8F140025046FFF786
:10057000C0FF05460E46504659464246FFF7AAFFC1
:10058000084305D0012004E020463946BDE8F08D3F
:100590000020054346EAE0762C4337430A9863057A
:1005A000E40AA0EB08000022FD0A44EA47540A309E
:1005B00002D500200146E9E7010510196941DDE98E
:1005C000084500196941BDE8F04DA2E72DE9FE4F4D
:1005D000804681EA0300C00F0C46009021F00041E4
:1005E00023F00045B8EB0200A94105D24046214660
:1005F00090461C460B46024623F00040104347D06D
:10060000270DC7F30A00C3F30A510290401A019064
:1006100040286BDAC3F3130040F4801B0098924625
:1006200020B10023D2EB030A63EB0B0B0198594670
:10063000C0F140025046FFF74DFF06460D465046BA
:100640005946019A00F0AAF810EB08006141002415
:1006500087EA115284EAE7731A4340D0009A62B3E2
:10066000019A012A4FEA075215DC001B61EB0201D7
:100670004FF0004202EA0752CDE90042001C41F56A
:10068000801132462B46FFF753FF03B0BDE8F08FD1
:1006900040462146F9E7001B61EB0201001C41F5D1
:1006A000801300185B412018A2F5001747EB0301E7
:1006B00040EAD570B6196D4111E06D084FEA360673
:1006C00045EAC0754FEA0752001B61EB0201001CAE
:1006D00041F5801149084FEA300000195141324676
:1006E0002B4603B0BDE8F04FFFF713BF009801227F
:1006F00040000023D0EB020263EBE0730098214638
:100700004FEAE074B8EB000061EB0401E9E783F025
:1007100000435BE781F0004158E770B521F00043EA
:1007200003430CD0C1F30A550024D5EB040564EB58
:100730000403D617AD1AB34102DB0020014670BD99
:10074000201841EB025170BD30B5041E71F1000458
:1007500004DB4FF00044404264EB0101141E73F1CE
:10076000000405DB1C464FF00043524263EB0403D8
:10077000994208BF904230BD064C074D06E0E06844
:1007800040F0010394E8070098471034AC42F6D3D8
:10079000FFF726FD98300008B8300008202A06DB55
:1007A000CB17203A41FA02F043EAE07306E041FA3F
:1007B00002F3D040C2F1200291400843194670472D
:1007C0002DE9F04D00231A461B1A8A4103DB002055
:1007D0000146BDE8F08DC1F30A52C1F3130141F4A3
:1007E00080154FF0000BD10702D100186D41521E49
:1007F0000027044640F2FF11384601EB620A3E46EC
:100800008046024600204FF48011FFF772FEC219A5
:100810007141BB1846EB0100B4EB030C75EB000C07
:1008200004D3E41A65EB000517460E46241908F1B7
:1008300001006D4180463428E3DDF91946EB0600DE
:10084000091BA84103D24FF0FF32134601E00022FA
:1008500013461BEB070046EB0A51BDE8F04DFFF7CE
:1008600058BEFEE70146002040292AD010DC0829A6
:100870002BD007DC01292CD0022928D0042900D153
:100880004520704710291ED02029FAD142207047F8
:10089000B1F5006F11D006DC802910D0B1F5806F62
:1008A000F5D13F207047B1F5805F04D0B1F5005F0E
:1008B000F8D13C2070473D2070473E2070474020D3
:1008C00070474120704743207047442070474620BE
:1008D0007047472070470A4610B50021012810D004
:1008E000022811D0042811D0FFF7BCFF0146107870
:1008F000BDE8104000EB400001EB8000C0B201F009
:100900003BB91068401C03E0002001E01068401E65
:100910001060ECE77047012000F0EAB810B54FF422
:10092000806000F0E5F84FF4006000F0E1F84FF46B
:10093000805000F0DDF8BDE810404FF4005000F0AA
:10094000D7B8022000F0D4B8042000F0D1B80820B5
:1009500000F0CEB8102000F0CBB810B5202000F089
:10096000C7F8402000F0C4F8BDE81040802000F037
:10097000BFB872B6FEE700000749002000EBC002D6
:1009800001EB8202127B002A04D0401C0C28F5DB0C
:100990004FF0FF3070470000E40C002010B54538E0
:1009A000FFF76EFD9FED0B1B53EC112BFFF7F9FCCE
:1009B00041EC110B9FED090B01F0BAFB9FED091BF8
:1009C00051EC100B53EC112BFFF779FC074AC2E9ED
:1009D000020110BD000000000000284000000000DF
:1009E00000000040000000000000794008000020E6
:1009F00070B54379012B1CD0012646710223037187
:100A000005682B6802F0100440F6FE72A240934382
:100A1000D1E900210A43A2401A432A6001680A680A
:100A2000C023A3409A430A60067100214171084621
:100A300070BD022070BD70B5040003D02079002580
:100A400010B105E0012070BD6571204600F008F886
:100A500002202071256101202071002070BD00005E
:100A600010B586B0044614216846FFF71DFC1149F5
:100A7000206888421CD110480021026842F00052D0
:100A80000260006800F0005005900B4810380268C2
:100A900042F001020260006800F0010005901020A1
:100AA00000900320CDE901016946044800F02CF8CC
:100AB00006B010BD00740040403802400000024003
:100AC00070B5044600F014F90546601C02D00448D5
:100AD0000078044400F00CF9401BA042FAD370BD2A
:100AE000700000200149FFF7F6BE00000000002062
:100AF000044910B50A68024202D00860FFF7F2FF0D
:100B000010BD0000143C01402DE9F84FDFF8ACA106
:100B1000002201240AF1040B03254FF00F090BF109
:100B2000040E00BF0B6804FA02F63340B3426ED1E4
:100B30000F7907F00307012F01D0022F16D1876824
:100B40004FEA420805FA08FC27EA0C07D1F80CC066
:100B50000CFA08FC4CEA070CC0F808C04768B74319
:100B60000E79C6F3001696403E4346600E79F64372
:100B7000B6070AD0C6684FEA420C05FA0CF7BE4326
:100B80008F6807FA0CF73743C7600E7906F0030643
:100B9000022E10D1D60800EB8608D8F8206057073F
:100BA0004FEAD76C09FA0CF7BE430F6907FA0CF746
:100BB0003743C8F8207006684FEA420C05FA0CF774
:100BC000BE430F7907F0030707FA0CF737430760B6
:100BD0004E6816F4403F6BD0394E376847F4804773
:100BE0003760366822F0030706F480460096354EDB
:100BF00007EB060CDCF8086897074FEA177809FA44
:100C000008F7BE43304FB84202D100271FE04FE043
:100C10002E4FB84201D1012719E02D4FB84201D122
:100C2000022714E02B4FB84201D103270FE02A4FCF
:100C3000B84201D104270AE0284FB84201D1052764
:100C400005E0274FB84201D1062700E0072707FA41
:100C500008F73743CCF80878DAF800605746D1F83F
:100C600004C09E435FEACC3C00D51E433E60DBF8E7
:100C700000605F46D1F804C09E435FEA8C3C00D51B
:100C80001E433E60DEF800607746D1F804C09E4304
:100C90005FEACC2C00D51E433E60084F0C373E68FF
:100CA000D1F804C09E435FEA8C2C00D51E433E6001
:100CB000521C102AFFF436AFBDE8F88F003C01400B
:100CC000443802400030014000000240000402406D
:100CD00000080240000C02400010024000140240D4
:100CE000001802400AB1816170470904FBE7000067
:100CF0000148806870470000700000200248816849
:100D00000278114481607047700000200B4810B5D4
:100D1000016841F400710160016841F48061016083
:100D2000016841F480710160032000F06FF8002039
:100D300000F006F800F024F8002010BD003C02404E
:100D400070B50D4D04464FF47A712878B1FBF0F080
:100D50000A490968B1FBF0F000F07EFD48B9102C9B
:100D600007D200222146501E00F030F800206C60AF
:100D700070BD012070BD0000700000207C000020CC
:100D80000A4808B5016841F480410160006800F438
:100D9000804000900548001F016841F080510160CB
:100DA000006800F08050009008BD00004438024008
:100DB000002809DB00F01F0201219140400980005A
:100DC00000F1E020C0F8001170470000F0B40E4BB5
:100DD0001B680C46C3F30223C3F10705042D00D999
:100DE0000425191D072901D2002300E0DB1E01267E
:100DF00006FA05F1491E214099409E40761E164094
:100E00003143F0BC01F083B90CED00E0064900F07D
:100E1000070208684FF6FF03184040EA0220034A21
:100E200010430860704700000CED00E00000FA0578
:100E300001220168C0F8FC23002280F8F4238869AD
:100E400040F000608861486D024A10434865002008
:100E500070470000030000102DE9F0418AB0040043
:100E600005D094F8BD032668002520B108E00120D4
:100E70000AB0BDE8F08184F8BC53204600F064F865
:100E8000032084F8BD03F06BC00500D42561206801
:100E900001F0C6F804F11001282288466846FFF7E1
:100EA000EAF994E80F0000F09BFF0226C8BB00217E
:100EB000206801F0E5F8002001270EE0C0EBC0013A
:100EC00004EB810181F83D7001F83C0FC880CD70C2
:100ED0008D60CD60401CC0B24D6161688142EDD82B
:100EE000002011E0C0EBC00104EB810181F8FD514D
:100EF00081F8FC0181F8FF51C1F80452C1F8085291
:100F0000401CC0B2C1F8105261688142EAD8282260
:100F100041466846FFF7AFF994E80F0000F0C8FFBC
:100F200010B184F8BD63A2E784F8385084F8BD732B
:100F3000606A012802D12046FFF77AFF206800F09E
:100F4000A9FF002094E7000030B587B004461421C3
:100F50006846FFF7A9F92068B0F1A04F30D11948D1
:100F60000024016841F0010101600068164D00F0A5
:100F7000010005904FF4E85000900220CDE90104F3
:100F8000032003900A20049069462846FFF7BCFD21
:100F90006815CDE90004694628460294FFF7B4FDC0
:100FA0000848001D016841F08001016005481430C7
:100FB000016841F480410160006800F480400590C0
:100FC00007B030BD30380240000002402DE9F84F34
:100FD000044600780027C34DC00708D02868E1699F
:100FE00020F0C06008432860E06900B9012720783C
:100FF000800708D52868216A20F0C050084328607F
:10100000206A00B90127208881046FF0FF0015D500
:101010002968A26C21F4401111432960A16C19B117
:10102000B1F5001F02D009E0012707E029686269D5
:1010300021F4F85100EB0222114329602188490470
:1010400015D52968E26C21F4400111432960E16C57
:1010500019B1B1F5000F02D009E0012707E02968B6
:10106000626921F4F85100EB0220014329602078E5
:101070004FF00009000755D59A484C38016841F0F7
:10108000805101600068DFF8608200F080500090BD
:10109000D8F8001041F48071C8F80010FFF728FE5E
:1010A000064604E0FFF724FE801B02286FD8D8F81C
:1010B0000000C005F6D58B4E1C3E306810F4407021
:1010C0001FD0A18C01F4407181421AD030680122F6
:1010D00020F4407185480260C0F8009031603068AB
:1010E000C0070ED0FFF704FE804641F2883A05E0C3
:1010F000FFF7FEFDA0EB0801514548D83068800796
:10110000F6D5616A7748C1F301228438032A36D0C4
:10111000016821F4F81101603068A18CC1F30B0162
:10112000084330602078DFF8C8A1400703D594F861
:101130005410CAF8E01120786E4EC00605D530680C
:10114000E16A20F440000843306020784FF00068E6
:10115000800609D53068216B20F0006008433060BC
:10116000206B404500D101272078400605D5306826
:10117000A16A20F080500843306067B908E0026837
:101180005D4B22F4F81219400A430260C4E773E091
:101190002068802877D1DFF864B1CBF86890FFF73A
:1011A000A7FD504F81468C3F06E000BFFFF7A0FD32
:1011B000A0EB090002285FD838680001F6D4216D41
:1011C000CAF8D81020684E49C20701D0E2697AB146
:1011D000820701D5226A5AB1820602D5226B4245A6
:1011E00006D040060FD5A06A68B9206B40450AD1E9
:1011F000D4E9010240EA8210227B237C120642EAF3
:101200000372104308602068820401D5A26C1AB1F1
:10121000400415D5E06C98B90868D4E9012342EA86
:101220008312C0F30360237C000640EA037002438C
:101230000A602868A26920F01F00521E104328602F
:10124000207800060AD5D4E9010240EA8210227B08
:10125000237C120642EA0372104308600120CBF897
:101260006800FFF745FD80460AE000BFFFF740FD3C
:10127000A0EB0800022803D90320BDE8F88F02E0A4
:1012800038680001F2D52088C00505D52868616B53
:1012900020F00040084328602088800505D5286894
:1012A000A16B20F40040084328602088400505D544
:1012B0002868E16B20F00040084328602088000582
:1012C00005D52868216C20F48040084328602088D8
:1012D000C00405D53068616C20F0404008433060A0
:1012E0000020CAE78C38024000700040400E4742A0
:1012F0000010474294380240FFFCFF0F00004742B5
:10130000843802402DE9F0470E46050065D0DFF82D
:101310001481D8F80000F7B200F00700B04207D2FD
:1013200088F80070D8F8000000F00700B04254D1EF
:1013300028683D4C810712D5400703D5206840F44A
:10134000E05020602878000703D5206840F4604012
:1013500020602068A96820F0F00008432060287809
:10136000C0072DD0304968680839012812D00228FA
:1013700013D0032811D00968890700292DDA2168C4
:1013800021F0030101432160FFF7B2FC814641F2E5
:10139000883A0EE009688903EFE709688901ECE7FC
:1013A000FFF7A6FCA0EB0901514502D90320BDE8D7
:1013B000F0872068696800F00C00B0EB810FEFD176
:1013C000D8F80010404601F00701B14207D9077074
:1013D000006800F00700B04201D00120E7E728785C
:1013E000400705D52068E96820F4E05008432060F4
:1013F0002878000706D52068296920F4604040EA73
:10140000C100206000F038F82168084AC1F30311D8
:10141000515CC8400649086006480068FFF790FC28
:101420000020C4E7003C024008380240EC2F0008CE
:101430007C00002074000020044805490068096809
:10144000044AC1F38221515CC84070477C000020EF
:1014500008380240FC2F0008044805490068096864
:10146000044AC1F34231515CC84070477C000020FF
:1014700008380240FC2F0008154810B5006810F02D
:101480000C02144813D04110042A0FD0082A0ED1A0
:101490000F4C241F2268236802F03F025B0207D52D
:1014A0002068C0F38810A0FB010106E0084610BDCB
:1014B0002168C1F38811A1FB00010023FEF7AAFEF9
:1014C0002168C1F30141491C4900B0FBF1F010BD96
:1014D000083802400024F4002DE9F84F04006ED0D3
:1014E0002078DFF86093C007A9F104054AD009F11C
:1014F00004000168C1F38101012908D00068C0F32C
:10150000810002280AD1D9F80000400206D52868D7
:10151000800337D560680028E1D033E06068B0F51B
:10152000803F10D0B0F5A02F286810D020F4803074
:101530002860286820F4802028606068A8B1FFF740
:10154000D7FB06460DE0286840F48030F4E740F40D
:1015500080202860F7E700BFFFF7CAFB801B6428E4
:1015600073D828688003F7D50CE0FFF7C1FB064667
:1015700005E000BFFFF7BCFB801B6428F0D828689B
:101580008003F7D42078DFF8C08280074FF0000A8C
:101590003ED5AC48001D016811F00C0F08D0006862
:1015A000C0F3810002280BD1D9F80000400207D413
:1015B0002868800716D5E068012800D112E03CE1D8
:1015C000E068B8B10120C8F80000FFF791FB0646BB
:1015D00005E000BFFFF78CFB801B0228C0D82868FD
:1015E0008007F7D52868216920F0F80040EAC1009B
:1015F00028600DE0C8F800A0FFF77AFB064604E07B
:10160000FFF776FB801B02281FD828688007F7D4D5
:101610002078000722D58B4E8C486169703671B1F5
:1016200001210160FFF764FB074604E0FFF760FB60
:10163000C01B022809D830688007F7D50EE0C0F833
:1016400000A0FFF755FB074605E082E0FFF750FBDF
:10165000C01B02287DD830688007F7D42078400767
:1016600068D5DFF8E0B100270BF13C0BDBF8000098
:10167000C0000BD4DBF8001041F08051CBF8001013
:10168000DBF80000012700F080500090704E3068B9
:10169000C00510D4306840F480703060FFF728FB3C
:1016A000009005E0FFF724FB0099401A022850D86B
:1016B0003068C005F6D5634EA0686C3601280FD09F
:1016C0000528306810D020F001003060306820F02C
:1016D00004003060A068B8B1FFF70AFB00900FE08B
:1016E000306840F00100F4E740F004003060F7E7B4
:1016F000FFF7FEFA0099411A41F28830814268D81A
:1017000030688007F4D50EE0FFF7F2FA009007E0AA
:10171000FFF7EEFA0099411A41F28830814258D819
:1017200030688007F4D42FB1DBF8001021F080512D
:10173000CBF80010A069D8B34249091D0968C1F36C
:10174000810102294CD00228504607D0C8F8600019
:1017500000E03EE0FFF7CCFA04463DE04746C8F81B
:101760006000FFF7C5FA064605E000BFFFF7C0FAC4
:10177000801B02282DD828688001F7D4F4E90701DE
:101780000843E168334A490802EB0141A26841EA93
:1017900082110843217C40EA0160217D40EA017109
:1017A000C9F8001001203866FFF7A2FA044606E0E7
:1017B00045E000BFFFF79CFA001B022809D8286803
:1017C0008001F7D53BE000BFFFF792FA001B02282B
:1017D00002D90320BDE8F88F28688001F4D42EE0F8
:1017E0000128F7D0D9F80000E26900F480019142A5
:1017F00023D1226A00F03F0191421ED147F6C07109
:10180000626A0140B1EB821F17D1A26A4FF0FF3329
:1018100000F4403103EB5202B1EB024F0DD194F8CA
:101820002C2000F07061B1EB026F06D194F83010FB
:1018300000F0E040B0EB017F01D00120CAE70020BA
:10184000C8E700000438024000004742800E4742CB
:10185000007000400000FFFF10B5401EB0F1807F17
:1018600001D3012010BD4FF0E02460610F2160170B
:1018700000F04DFC0020A06107202061002010BD79
:1018800070B5040004D094F83D00002510B106E0C6
:10189000012070BD84F83C50204600F023F824203D
:1018A00084F83D002068C16821F40051C1602046E1
:1018B00000F006FA2068016921F490410161206876
:1018C000416921F02A0141612068C16841F4005159
:1018D000C1602564202084F83D0084F83E0000208B
:1018E00070BD000010B586B0044614216846FEF7AE
:1018F000DBFC14492068884221D11348002102688A
:1019000042F480220260006800F4802005900E48B6
:101910001038026842F008020260006800F0080017
:1019200005904FF4407000900220CDE901010320A2
:1019300003900720049069460448FFF7E5F806B0D5
:1019400010BD00000048004040380240000C02403A
:10195000FEE700001CB500240C4900940A480194DD
:1019600008600846FFF767F808B1FFF702F800942F
:101970000022694605480194FFF73AF8002801D093
:10198000FEF7F7FF1CBD000000740040840000203B
:10199000F0B587B014216846FEF786FC5348002452
:1019A000016841F004010160016801F00401059142
:1019B000016841F080010160016801F0800105913A
:1019C000016841F001010160016801F00101059128
:1019D000016841F002010160016801F00201059116
:1019E000016841F008010160016801F008010591FA
:1019F000016841F04001016000683D4E00F0400088
:101A000044F281050590002229463046FFF76AF925
:101A1000384F002240213846FFF764F90720CDE90E
:101A20000004694634480294FFF76EF800950125DA
:101A3000CDE90154694630460394FFF765F843F653
:101A4000FF4000904FF48810CDE9010469462B480F
:101A5000FFF75AF840200090CDE901546946384616
:101A60000394FFF751F88020CDE900046946384619
:101A70000294FFF749F8002211460620FFF7A6F965
:101A80000620FFF795F9002211460720FFF79EF97F
:101A90000720FFF78DF9002211460820FFF796F97D
:101AA0000820FFF785F9002211460920FFF78EF97B
:101AB0000920FFF77DF9002211460A20FFF786F979
:101AC0000A20FFF775F9002211461720FFF77EF96B
:101AD0001720FFF76DF9002211462820FFF776F94D
:101AE0002820FFF765F907B0F0BD0000303802404C
:101AF000000402400018024000000240000C0240B6
:101B00000C4810B50A4901604FF4E13141600021F1
:101B100081600C22C160C0E904128161C161FFF7DC
:101B2000AFFE002803D0BDE81040FEF722BF10BD75
:101B300000480040980000200D4810B54FF0A0412B
:101B400001600621416002220021C0E90321826177
:101B50000122C0E90721C0E90912C0E90B21FFF702
:101B60007BF9002803D0BDE81040FEF702BF10BD8E
:101B7000DC000020FEE7FEE770B50546FEF7FCFE40
:101B8000411C29D0154900EBC00001EB8004284618
:101B9000FEF704FF9FED120B134853EC102B90ED52
:101BA000020B51EC100BFEF78AFB9FED101B53EC60
:101BB000112BFEF7F6FBFEF774FC6060002001219C
:101BC000206021739FED0B0A606184ED070A84EDAC
:101BD000080AA56184ED040A70BD0000E40C002031
:101BE000000000000000F04108000020000000009C
:101BF0008088E5400000000070477047FFF77EB81E
:101C000030B5A9B0342116A8FEF74EFB142123A845
:101C1000FEF74AFB58216846FEF746FB224800249F
:101C2000016841F080510160006800F08050289008
:101C30001E48016841F4404101600068022500F43B
:101C400040402890012016904FF4A020179068057E
:101C5000CDE91C5008204FF4C071CDE91E010421CC
:101C6000CDE92010229516A8FFF736FC08B172B610
:101C7000FEE70F20CDE923054FF48050CDE9254044
:101C8000032123A82794FFF73DFB08B172B6FEE7B6
:101C9000202000900C946846FFF798F9002801D0A6
:101CA00072B6FEE729B030BD4038024000700040F7
:101CB0000248016841F470010160704788ED00E05E
:101CC00070B5044600680169E26821F4405111438F
:101CD00001612169A068E269084361691143084311
:101CE0002168CA6849F20C639A430243CA602068BB
:101CF0004169A26921F4407111434161344920686E
:101D0000884208D03349884205D03349884202D0FE
:101D10003249884202D1FFF79FFB01E0FFF78CFBBD
:101D2000E2690023192164253226B2F5004F62686A
:101D300028D0A0FB0101930F9200FEF76BFA014639
:101D4000B0FBF5F06FF01802504301EB800006EB9A
:101D50000010B0FBF5F000F0F002B1FBF5F002EB83
:101D60000012B1FBF5F06FF01803584301EB80004F
:101D700006EB0010B0FBF5F000F00F0021681044F6
:101D8000886070BDA0FB010192185B41FEF742FA2A
:101D90000146B0FBF5F00201B1FBF5F06FF018035E
:101DA000584301EB800006EBC000B0FBF5F000F0FB
:101DB000F80002EB4002B1FBF5F0584301EB800064
:101DC00006EBC000B0FBF5F000F00700D6E700001E
:101DD000001001400014014000180140001C0140A7
:101DE00070B5044606990A9E049D0D98012916D0E7
:101DF000E06840F04000E060204600F02BF8A16B66
:101E00001EB321F48031A163012D07D1A16841F0F7
:101E10000601A160A16841F02001A16070BDA16B25
:101E200021F48031A163E168094A1140E160E16871
:101E300021F44011E160012803D1E06840F48010F2
:101E4000E060204600F006F8DEE741F48031DAE792
:101E5000BFFFBDFF08B500220D490092009B5B1C2F
:101E600000938B420CD80369002BF7DA00920269C9
:101E700042F001020261009A521C00928A4201D98A
:101E8000032008BD0269D207F5D1002008BD00007B
:101E9000400D0300D0F8001E21F00301C0F8001E21
:101EA000D0F8041841F00201C0F80418002070476F
:101EB0002DE9F04F00250E460446DDF82CC0DDF874
:101EC00024B0109F2846294604EB8002C2F8041172
:101ED000401C0F28F8D32046A7B1806B40F40012B5
:101EE000A26308468846C4F8000ED4F800182046BD
:101EF000C4F80018BCF1010F17D0D0F8001841F059
:101F0000030117E0D0F8040840F00202C4F80428E6
:101F1000A06B20F40012A263206840F0400222600F
:101F2000206840F080022260DBE7D0F800180BB197
:101F300041F00101C0F80018102100F08BF800B149
:101F40000125204600F072F800B101254046C4F892
:101F50001088C4F81488C4F81C8800214FF0006968
:101F60004FF0904A4FF67F3315E000BF04EB41126B
:101F7000D2F800C9BCF1000F06DA11B1C2F800A90D
:101F800004E0C4F8009901E0C2F80009C2F81009A1
:101F9000C2F80839491C8E42E8D8002115E000BF7C
:101FA00004EB4112D2F800CBBCF1000F06DA11B1FC
:101FB000C2F800AB04E0C4F8009B01E0C2F8000BDB
:101FC000C2F8100BC2F8083B491C8E42E8D8D4F87E
:101FD000101821F48072C4F81028A0616FF08040BE
:101FE0006061BBF1000F03D1A06940F01000A06157
:101FF000A06909490843A0610C9818B1A06940F094
:102000000800A061012F03D1A06904490843A06121
:102010002846BDE8F08F000000383C8004000040F6
:10202000816821F0010181600020704708B500211E
:102030000091102101610649009A521C00928A42C7
:1020400001D9032008BD0269D206F5D4002008BDDD
:10205000400D030008B500220092202242EA8111BF
:1020600001610649009A521C00928A4201D903205C
:1020700008BD02699206F5D4002008BD400D03009A
:1020800070B50446C068002520F0C040E06001291A
:1020900001D079B120E0E06840F00050E06001201C
:1020A000FEF70EFD60696D1C10F0010F10D1322D8E
:1020B000F5D30DE0E06840F08040E0600120FEF7DD
:1020C000FFFC60696D1C10F0010F01D0322DF5D3BB
:1020D000322D01D0002070BD012070BDFEE703B499
:1020E00001984100009850EAC12018BF04204A0D11
:1020F00018BF40F0010040F2FF72B2EB515F08BF21
:1021000040F00200012808BF052002B0704709070F
:10211000090E002804DB00F1E02080F8001470476D
:1021200000F00F0000F1E02080F8141D704700005F
:102130002DE9F04D2DED040B2DED0E8B96B0DDE964
:102140002550279CDDF890A025F0004624F000489B
:10215000BAF1000F14BF0121002101EB4502FC4937
:1021600053184A1093422AD3002814BF0123002396
:1021700003EB44030B44F7498B4220D358EA000198
:102180009FEDF59B76D0DFF8D8B35D4503D1BAF16A
:10219000000F05D188E0BAF1000F08BF002100D080
:1021A000012101EB450111F5001F08D8002814BFDB
:1021B0000121002101EB440111F5001F0BD99DED18
:1021C000261B9DED240B16B0BDEC0E8B04B0BDE8B4
:1021D000F04D00F069BE0027002DBCBFE1498845E5
:1021E00021DAE1498845A8BF02271CDAC3451ADC79
:1021F000DE4901EB2851142908DDC1F1340220FA2F
:1022000002F101FA02F282420DD108E058B9C1F19F
:10221000140228FA02F101FA02F2424503D101F058
:102220000101C1F1020756EA0A0124D1002C22DA89
:10223000002D18BF022F01D0012F0AD0022000F07C
:102240007FFE16B0BDEC0E8B04B0BDE8F04D00F083
:1022500013BE022000F074FE00F00EFE51EC100BD5
:1022600081F0004141EC100B16B0BDEC0E8B04B0B8
:10227000BDE8F08D18E09FEDBEAB9FEDBF8B002851
:1022800071D1B848804522D105F1804010F5801009
:1022900008BFBAF1000F07D0B3450ADC002CA8BF75
:1022A0009DED260BE0DA0DE0B0EE490AF0EE690A8A
:1022B000DAE7002C06DA9DED260B51EC100B81F0CD
:1022C00000416FE0AE48784490ED000BCCE7D84574
:1022D0004DD1002C48DA2EB186423AD1BAF1000F26
:1022E00042D126E0BAF1000F13D0022000F028FE00
:1022F00000F0F6FD8DED020B9DED240B8DED000B36
:1023000010EE900A039961F31E0003909DED020BFD
:10231000AAE78DED02AB9DED240B1AEE901A10EE9C
:10232000900A8DED000B61F31E0003909DED020BF2
:102330009AE78DED028B9DED240B18EE901A10EEAE
:10234000900A8DED000B61F31E0003909DED020BD2
:102350008AE709DA9DED240B51EC190B53EC102B95
:10236000FEF71FF81EE020E09DED240B7CE786427F
:102370001BDAB4F1804F0DD0A4F10050B0F1FF5042
:1023800013D1002D11DB9DED240B51EC100B00F04F
:10239000F6FD07E09DED240B53EC102B51EC100BD8
:1023A00000F0C2BC41EC100B5EE79DED240B51EC3C
:1023B000100B00F0CBFDBAF1000FCDE90E0142D1B8
:1023C0009FED710B46B3A6F1E040B0F17F600CD0F9
:1023D0005E4538D1002D00DAA7B3022F0CBF0120D3
:1023E0004FF0FF30FEF74CF8DCE7002D01DD002C4C
:1023F0000DDA002D01DD002C1FDB002D16DA002C7C
:1024000014DB012F08BF9FED620B3FF42DAFB0EE40
:102410004A0AF0EE6A0A27E7022F18BF002D0CD0F7
:10242000012F0AD1002DFFF61FAF06E0002DB8BF27
:10243000002C08DA012F3FF417AFB0EE480AF0EE97
:10244000680A11E71BE0012000EBE57050EA070184
:1024500015D0791EB0EE498AF0EE698A084308BFAC
:102460009FED4D8B4E480025804570DD4D494E480F
:10247000884514DDB0420DDB002C19DB2FE0012074
:1024800000F05EFD16B0BDEC0E8B04B0BDE8F04D63
:1024900000F016BDB34502DC002C09DC1FE08642CB
:1024A00002DA002C1BDA03E05E452BDD002C16DD82
:1024B000022000F045FD00F013FD8DED020B53EC02
:1024C0001A2B51EC180BFDF7FAFECDE90001039928
:1024D000019861F31E0003909DED020BC4E60220FB
:1024E00000F02EFD00F00CFD10EE901A18EE900A90
:1024F0008DED020B8DED008B61F31E0003909DEDC1
:10250000020BB1E69DED0E0B53EC192B51EC100BA9
:10251000FEF7FDF89FED260BCDE9080153EC102BDB
:102520009DED080B51EC100BFDF7C9FE9FED221B32
:1025300053EC112BFEF7EEF89DED081B53EC112B1D
:10254000FDF7BDFE9FED1E1B53EC112B3CE08CE014
:10255000FFFF1F00FFFF0F00000000000000F03F22
:102560000000F03F0000F07F0000404301FCFFFF4F
:10257000000000000000F07F0000000000000000EC
:10258000C60D0000000000000000000000000080F8
:10259000000000000000F0FF000000000000F0BF9D
:1025A0000000E0410000F043FFFFEF3F00000000AB
:1025B000000000000000D03F555555555555D53FFA
:1025C000000000000000E03FFEF7A4F89DED080BBE
:1025D00041EC1A0B53EC102B51EC100BFDF76FFE76
:1025E00053EC1A2BFDF76BFE41EC1A0B9FEDFE0B23
:1025F00053EC102B9DED080B51EC100BFDF75FFE1B
:1026000041EC1B0B9FEDFA0B51EC1A0B53EC102B0A
:10261000FDF755FE41EC1A0B9FEDF70B53EC102B19
:102620009DED080B51EC100BFDF749FE53EC1A2BF6
:10263000FEF76DF841EC1A0B51EC1B0B53EC1A2B07
:10264000FDF7C4FF0690CDE906519DED060B53EC56
:102650001B2B51EC100BFEF75AF853EC1A2BFEF71C
:1026600059F841EC100B00F0A1B90020B6F5801F1D
:102670000EDA9FEDE30B53EC102B9DED0E0B51EC9E
:10268000100BFDF71CFECDE90E016FF034000E4675
:1026900000EB2650A0F2FF37C6F31300DA4940F0F2
:1026A0007F6646F040568842D8BF002408DDD749EF
:1026B0008142C8BF012403DC0024A6F580167F1CDC
:1026C000D348784400EBC4000F9690ED00CB9DED0D
:1026D0000E0B53EC1C2B51EC100BFEF718F89DED74
:1026E0000E0B41EC1B0B53EC1C2B51EC100BFDF7AC
:1026F0006DFF41EC100B51EC190B53EC102BFDF757
:1027000050FE41EC1D0B51EC1B0B53EC1D2BFDF748
:10271000D6FD41EC1A0BBF488DED10AB78441095F7
:1027200090ED000B4FF0005040EA660000EB844053
:102730008DED080B00F5002009909DED080B53EC82
:102740001C2B51EC100BFDF7E2FF9DED0E1B53EC23
:10275000112BFDF7DFFF41EC100B53EC102B9DED1F
:10276000100B51EC100BFDF7AAFD9DED080B41EC91
:102770001C0B53EC102B9DED100B51EC100BFDF7C7
:102780009EFD53EC1B2BFDF7C5FF53EC1C2BFDF7F7
:10279000BEFF53EC1D2BFDF792FD41EC1C0B53ECDF
:1027A0001A2B51EC1A0BFDF78AFD41EC1B0B9A48D2
:1027B0000621B0EE4B0AF0EE6B0A784400F0E0FA26
:1027C000B0EE401AF0EE601AB0EE41DAF0EE61DAE7
:1027D00053EC1B2B51EC1B0BFDF771FD53EC1D2B28
:1027E000FDF76DFD9DED100B41EC1B0B53EC1A2B0F
:1027F00051EC100BFDF7EAFE53EC1C2BFDF75FFDCF
:1028000053EC1B2BFDF7E2FE9DED100B41EC1B0B77
:1028100053EC102B51EC100BFDF751FD41EC1D0B4F
:102820009FED7FEB53EC1E2BFDF7D0FE53EC1B2BE3
:10283000FDF7CCFE0890CDE908519DED080B53EC57
:102840001E2B51EC100BFDF762FF53EC1D2BFDF717
:102850005EFF53EC1B2BFDF75DFF9DED080B41EC7C
:102860001D0B53EC102B9DED100B51EC100BFDF7D5
:1028700026FD41EC1B0B53EC1A2B51EC1D0BFDF705
:102880001EFD9DED080B41EC1A0B53EC102B51EC87
:102890001C0BFDF714FD53EC1A2BFDF797FE41ECD2
:1028A0001A0B51EC1B0B53EC1A2BFDF78FFE0C90FF
:1028B000CDE90C519DED0C0B53EC1B2B51EC100B87
:1028C000FDF725FF53EC1A2BFDF724FF41EC1B0B02
:1028D0009FED550B53EC102B9DED0C0B51EC100B99
:1028E000FDF7EDFC41EC1A0B9FED510B51EC1B0B6E
:1028F00053EC102BFDF7E3FC41EC1B0B9FED4E0B53
:1029000053EC102B9DED0C0B51EC100BFDF7D7FC8D
:1029100053EC1B2BFDF75AFE41EC100B4848784452
:1029200000EBC40090ED001B51EC100B53EC112B8D
:10293000FDF74CFE41EC1B0B3846FDF7A1FDCDE940
:10294000080153EC1B2B51EC1A0BFDF73FFE41EC39
:10295000100B3C48784400EBC40090ED00CB51ECE8
:10296000100B53EC1C2BFDF731FE9DED081B53ECB7
:10297000112BFDF72BFE0690CDE906519DED080BBE
:1029800053EC102B9DED060B51EC100BFDF7BFFE29
:1029900053EC1C2BFDF7BBFE53EC1A2BFDF7B7FED7
:1029A00053EC1B2BFDF7B6FE41EC100B9DED261BE7
:1029B00053EC102B8DED001B00959DED260B51EC7B
:1029C000100BFDF77CFC9DED000B41EC1A0B53EC5A
:1029D000102B9DED260B51EC100BFDF798FE9DED95
:1029E000061B53EC112B2FE0000000604715F73F4A
:1029F000FE822B654715F73F44DF5DF80BAE543E72
:102A000000000000000040438E9803007AB60B00DF
:102A100042090000700900007A0800000000000070
:102A20000000000000000840000000E009C7EE3F81
:102A3000FD033ADC09C7EE3FF5015B14E02F3EBE13
:102A400006070000C0060000FDF739FC53EC1A2B06
:102A5000FDF7BCFD9DED060B41EC1A0B53EC102B62
:102A60009DED000B51EC100BFDF729FCCDE90C019D
:102A70009DED0C0B51EC1A0B53EC102BFDF7A6FD42
:102A8000CDE902010C46AA498C422FDB611A0843AA
:102A900018D19DED0C0B53EC102B9DED020B51EC5E
:102AA000100BFDF734FE41EC1B0B9FEDA30B51EC1B
:102AB0001A0B53EC102BFDF789FD53EC1B2BFDF784
:102AC00043FE2DD2022000F03BFA00F009FA10EE8E
:102AD000901A18EE900A8DED020B8DED008B61F3CC
:102AE0001E0003909DED020BFFF7BEBB944A24F03D
:102AF0000041914214D39349214408437FF4EFAC41
:102B00009DED0C0B53EC102B9DED020B51EC100BBB
:102B1000FDF7FDFD53EC1A2BFDF716FE7FF6DFAC3B
:102B200024F000408849894A002601EB2051824266
:102B30002BDA481C4FF4801121FA00F02044844A1B
:102B4000C0F30A517A44A1F2FF3192ED000B814AA1
:102B50008DED080BCA4020EA0202C0F3130040F4D6
:102B60008010C1F1140120FA01F60992002CB8BFBF
:102B700076429DED080B53EC102B9DED0C0B51ECA8
:102B8000100BFDF7C4FDCDE90C019DED0C0B51ECD4
:102B90001A0B53EC102BFDF719FD9FED6F0B0890EE
:102BA000CDE9085153EC102B9DED080B51EC100BA7
:102BB000FDF785FB41EC1B0B9FED690B53EC102BD4
:102BC0009DED080B51EC100BFDF779FB9DED0C0B07
:102BD00041EC1C0B53EC102B9DED080B51EC100B32
:102BE000FDF795FD53EC1A2BFDF794FD9FED5E1B51
:102BF00053EC112BFDF763FB53EC1C2BFDF7E6FCAC
:102C000041EC1A0B51EC1B0B53EC1A2BFDF7DEFCBD
:102C1000CDE902019DED020B53EC1B2B51EC100B87
:102C2000FDF775FD53EC1A2BFDF774FD9DED020BBE
:102C300041EC1A0B53EC102B51EC100BFDF73FFB42
:102C4000CDE908014A489DED080B0521784400F0C4
:102C500097F89DED081B51EC100B53EC112BFDF771
:102C60002EFB9DED021B53EC112BFDF753FDCDE91F
:102C700006019DED020B53EC1A2B51EC100BFDF7E6
:102C80001EFB53EC1A2BFDF7A1FC9FED3B0B41EC17
:102C90001A0B53EC102B9DED060B51EC100BFDF7AE
:102CA00036FD9DED060B41EC1B0B53EC102B9DEDFF
:102CB000020B51EC100BFDF702FB53EC1B2BFDF745
:102CC00070FB53EC1A2BFDF722FD9DED021B53EC1C
:102CD000112BFDF71CFD53EC192BFDF71BFDCDE966
:102CE000020101EB065001150029C8BF039015DC55
:102CF0009DED020B324651EC100BFDF70EFDFFF778
:102D0000EEF9042808BF00F0FBF832469DED020BF7
:102D100051EC100BFDF701FDCDE902019DED020B19
:102D200051EC180B53EC102BFDF7C9FAFFF73ABB27
:102D30000000904000000000FE822B654715973C84
:102D400000CC904000346F3F01FCFFFF0000E03FEB
:102D500048050000FFFF0F0000000000432EE63F83
:102D6000396CA80C615C20BEEF39FAFE422EE63FBA
:102D700018040000000000000000000000000040F7
:102D800070B504462DED028B4D1E00EBC500B0EE74
:102D9000408AF0EE608A90ED000B35F0060017D007
:102DA00053EC182B51EC100BFDF789FA41EC100B8A
:102DB0006D1E04EBC50090ED001B51EC100B53ECA5
:102DC000112BFDF703FC41EC100B35F00600E7D1A9
:102DD000022D36D0042D1CD0062D1CBFBDEC028B5D
:102DE00070BD53EC182B51EC100BFDF768FA94ED05
:102DF0000A1B53EC112BFDF7E9FB53EC182BFDF7E5
:102E00005EFA94ED081B53EC112BFDF7DFFB41EC50
:102E1000100B53EC182B51EC100BFDF750FA94EDFE
:102E2000061B53EC112BFDF7D1FB53EC182BFDF7D0
:102E300046FA94ED040B53EC102BFDF7C7FB41EC65
:102E4000100B53EC182B51EC100BFDF738FA94EDE6
:102E5000021B53EC112BFDF7B9FB53EC182BFDF7BC
:102E60002EFA94ED001B53EC112BFDF7AFFBBDECDC
:102E7000028B41EC100B70BD9FED070B10B553ECAE
:102E8000102B9FED070B51EC100BFDF78AFA41EC6C
:102E9000100B10BD0000000000000000000000004A
:102EA000000000000000F03F10B553EC112B51EC76
:102EB000100BFDF78BFB41EC100B10BD0000000068
:102EC0009FED050B10B553EC102B51EC100BFDF7DB
:102ED00068FA41EC100B10BD00000000000000007B
:102EE0009FED050B10B553EC102B51EC100BFDF7BB
:102EF000E6F941EC100B10BD00000000000000706E
:102F00009FED050B10B553EC102B51EC100BFDF79A
:102F1000D6F941EC100B10BD0000000000000010BD
:102F200002E008C8121F08C1002AFAD17047704792
:102F3000002001E001C1121F002AFBD170470000F0
:102F400001490860704700008000002082B0CDE990
:102F5000000121F0004001909DED000B02B051EC0A
:102F6000100B7047FDF7D2FEFEF74AFEFEF710FD8C
:102F7000FEF7F0FCFEF7C4FDFEF7DEFDFEE700B550
:102F80002DED048B83B041EC190BFDF719FC41ECDE
:102F9000180B18EE100A18EE901A8DED008B002811
:102FA00018BF0120084320F00040C0F17F6000F10D
:102FB000E040C00F14D019EE101A19EE900A8DEDF2
:102FC000009B002918BF0121084320F00040C0F1F8
:102FD0007F6000F1E040C00F04BF0120FFF7B0FFA9
:102FE00051EC180B03B0BDEC048B00BD00000000D9
:102FF00000000000010203040607080900000000A9
:103000000102030400000000000000000000F03F87
:10301000000000000000F83F000000000000000079
:103020000000004003B8E23F000000000000000084
:1030300006D0CF43EBFD4C3E033333333333E33F12
:10304000FFAB6FDBB66DDB3F4D268F515555D53F3E
:1030500001411DA96074D13F65DBC9934A86CD3F0C
:10306000EF4E454A287ECA3F3E5555555555C53FFA
:1030700093BDBE166CC166BF2CDE25AF6A56113FEC
:10308000F16BD2C541BDBBBED0A4BE726937663EEE
:103090000000000000000000B83000080000002020
:1030A00084000000202F00083C310008840000202C
:1030B00014120000302F0008000000000000000083
:1030C0003930000000000000000000000000000097
:1030D0000AD7233CCDCCCC3D3333333F0000003FF7
:1030E0000000803F0000803ECDCC4C3FCDCCCC3D9D
:1030F0009A99193FCDCC4C3D9A99993E0AD7A33C59
:103100009A99193E0000803F0000404000000040B6
:103110000000A0400000604000000041000080402E
:10312000000020410000A04001000000100000004D
:0C313000000000000024F400000000007B
:04000005080001D915
:00000001FF
